:020000040001F9
:10C00000707C002005C501000DC501000FC50100B1
:10C0100011C5010013C5010015C501000000000095
:10C0200000000000000000000000000017C5010033
:10C0300019C50100000000001BC501001DC501005D
:10C040001FC501001FC50100B1F801001FC5010097
:10C050001FC501001FC5010039DB01001FC501001C
:10C060001FC501001FC501001FC501001FC501003C
:10C070001FC501001FC501001FC501001FC501002C
:10C080001FC50100D9EA01001FC501001FC501003D
:10C0900023EE01001FC5010029EE01001FC50100AC
:10C0A0001FC501001FC501001FC501001FC50100FC
:10C0B0001FC501001FC501000000000000000000B6
:10C0C0001FC501001FC501001FC501001FC50100DC
:10C0D0001FC501001FC501001FC5010000000000B1
:10C0E0000000000000000000000000000000000050
:10C0F0000000000000000000000000000000000040
:10C10000000000000000000000000000000000002F
:10C11000000000000000000000000000000000001F
:10C40000DFF80CD000F07EFA00480047673A0200DF
:10C41000707C0020401E00BF00BF00BF00BF00BFF7
:10C4200000BF00BF00BF00BF00BF00BF00BF00BF14
:10C4300000BF00BF00BF00BF00BF00BF00BF00BF04
:10C4400000BF00BF00BF00BF00BF00BF00BF00BFF4
:10C4500000BF00BF00BF00BF00BF00BF00BF00BFE4
:10C4600000BF00BF00BF00BF00BF00BF00BF00BFD4
:10C4700000BF00BF00BF00BF00BF00BF00BF00BFC4
:10C4800000BF00BF00BFC5D170470000401E00BF05
:10C4900000BF00BF00BF00BF00BF00BF00BF00BFA4
:10C4A00000BF00BF00BF00BF00BF00BF00BF00BF94
:10C4B00000BF00BF00BF00BF00BF00BF00BF00BF84
:10C4C00000BF00BF00BF00BF00BF00BF00BF00BF74
:10C4D00000BF00BF00BF00BF00BF00BF00BF00BF64
:10C4E00000BF00BF00BF00BF00BF00BF00BF00BF54
:10C4F00000BF00BF00BF00BF00BF00BF00BFC5D16D
:10C50000704700000648804706480047FEE7FEE700
:10C51000FEE7FEE7FEE7FEE7FEE7FEE7FEE7FEE7F3
:10C520004DEE010001C401002DE9F05F0546002039
:10C5300092469B4688460646814640241BE0284694
:10C5400041464746224600F053F953465A46C01A20
:10C55000914110D311461846224600F03AF92D1A9F
:10C5600067EB01084F4622460120002100F031F917
:10C5700017EB00094E41201EA4F10104DFDC484600
:10C5800031462A464346BDE8F09F00000649074A67
:10C590000868504343F2390210440860400870476D
:10C5A0000149086070470000243000206D4EC641EC
:10C5B00040EA01039B0703D009E008C9121F08C025
:10C5C000042AFAD203E011F8013B00F8013B521EA5
:10C5D000F9D27047D2B201E000F8012B491EFBD21C
:10C5E00070470022F6E710B513460A46044619467E
:10C5F000FFF7F0FF204610BD421C10F8011B002978
:10C60000FBD1801A704730B504460020034600E095
:10C610005B1C934203D2E05CCD5C401BF8D030BD84
:10C62000034611F8012B00F8012B002AF9D1184616
:10C63000704700000FB400B58DB010A909900B90A1
:10C6400000914FF0FF300A9000200C9005480690B2
:10C65000054807906A4609A80F9900F0EDF80DB05B
:10C660005DF814FB55C8010073C801002DE9FF5F98
:10C670001D464FF0FF3BD5E9014691465F464FF01E
:10C680000008A9697F1C01988847296A8246884763
:10C690000028F6D1BAF1FF3F0CD024F4C064002E7C
:10C6A00019DD600614D5BAF12B0F09D0BAF12D0FA0
:10C6B0000ED103E0584604B0BDE8F09F44F4806416
:10C6C000A9697F1C01988847761E8246002E02DDEC
:10C6D000BAF1300F03D0B9F1000F26D032E0A969CA
:10C6E000761E44F400747F1C019888478246002E11
:10C6F00005DDBAF1780F06D0BAF1580F03D0B9F1C1
:10C70000000F10D01EE0B9F1000F02D0B9F1100FE8
:10C7100018D1A969761E24F400747F1C01988847FB
:10C720008246102002E0082000E00A20814609E04D
:10C7300008FB0908A969761E44F400747F1C01985F
:10C7400088478246002E05DD4946504600F060F8D5
:10C750000028EDDAE96901988847A00502D46FF056
:10C760000100A8E7E00725D1600613D5600502D5D2
:10C77000C8F1000000E0404629680A1D2A600968E7
:10C78000220501D5087015E0220701D5088011E0C7
:10C7900008600FE02868011D29600068210502D5A6
:10C7A00080F8008006E0210702D5A0F8008001E0B3
:10C7B000C0F8008038467EE770B5064603F048FBB7
:10C7C000046805460A220021304600F063F82C6018
:10C7D00070BD202A04DB203A00FA02F100207047E5
:10C7E0009140C2F1200320FA03F3194390407047AF
:10C7F000202A04DB203A21FA02F00021704721FAB6
:10C8000002F3D040C2F1200291400843194670471C
:10C810003A2800D2303820F02002412A01D3A2F178
:10C820003700884201D34FF0FF307047026811444F
:10C830001378016018467047D1600449516104497A
:10C84000116200211161114600F07CB82DC8010071
:10C8500031C90100426842B1016811F8013B23B1BE
:10C86000521EC0E90012184670470121C160881E9F
:10C87000704742685AB1C368016843B983688B4204
:10C8800005D0491E521CC0E90012002070474FF02D
:10C89000FF3070472DE9F04791460F468046044629
:10C8A000002614F8015B2DB100F03EF80068405DF1
:10C8B000C007F6D12B2D02D02D2D18D0641E4A466C
:10C8C0003946204600F0D4F927B13968A14201D198
:10C8D000C7F8008071054FF002040BD540420028D4
:10C8E00003DD03F0B5FA0460A007BDE8F08746F465
:10C8F0008066E4E70028F8DA03F0AAFA04606FF033
:10C900000040F2E7064C074D06E0E06840F0010306
:10C9100094E8070098471034AC42F6D3FFF774FD53
:10C92000108002003080020000487047047F02003F
:10C9300010B50446FFF7F8FF0068005D00F0010045
:10C9400010BD00002DE9F34F8BB04FF0000801F14E
:10C950000C000C464FF0010B46460DF1080A019001
:10C960006269012101989047051E2DD0252D2CD0FC
:10C97000216A8847C0B16269012101989047216A04
:10C9800088470028F7D1411E62690198904700E06E
:10C99000761CA1690B988847216A88470028F7D13F
:10C9A000E1690B988847DBE7A1690B988847074640
:10C9B000A84201D1761CD3E7E1690B9888477F1C18
:10C9C00002D1B8F1000F6FD046E1002762693D4601
:10C9D0003946019890472A2804D1626901210198BB
:10C9E00090470125DFF88492626901210198904700
:10C9F000A0F130010A290AD24F45E5DC07EB870197
:10CA000000EB4107303FDFD445F01005ECE7E906C5
:10CA100001D46FF000476C280AD04C2814D0682845
:10CA200015D06A280DD074281CD07A281AD01DE0A1
:10CA300062690121019890476C2802D045F00405F5
:10CA400014E045F002050DE045F020050AE06269BA
:10CA5000012101989047682802D045F0080505E0BB
:10CA600045F400656269012101989047C4E90157C6
:10CA700065283DD019DC58287AD00CDC452837D001
:10CA800004DC252826D0412831D131E046282FD09A
:10CA900047282CD12CE05B2877D0612828D0632848
:10CAA0007CD0642823D15AE0D0E06F2848D008DC3D
:10CAB00066281DD067281BD0692821D06E2816D182
:10CAC00027E0702845D0732868D0752847D078288B
:10CAD0000DD14DE0A1690B988847054625283FF404
:10CAE00069AFE1690B9888476D1C3FF46AAFB3E00A
:10CAF00023466A466FF001000B99AFF300809EE079
:10CB000045F040006060A80723464FF0000236D48D
:10CB10003EE0E8077FF447AF2068011D2160006810
:10CB2000290501D506701BE7290701D5068017E7FF
:10CB3000A90703D5F117C0E9006111E706600FE707
:10CB400045F040006060A80723464FF0080216D465
:10CB50001EE040F60E0125EA0100606016E045F097
:10CB600040006060A80723464FF00A0207D40FE098
:10CB700045F040006060A80708D5234610226FF0FA
:10CB800001000B99AFF3008059E007E02346102223
:10CB90006FF001000B99FFF769FD50E04FF00009BD
:10CBA0004F464B46632802D05B2806D040E0E8069B
:10CBB00001D40120A06001273AE0626901210198B7
:10CBC00090475E2805D14FF00109626949460198F6
:10CBD0009047216939B900210A46534643F821207C
:10CBE000491C0829FADBB0B3216969B9C11700EB08
:10CBF000D16253110AEB830122F01F02821A012035
:10CC00000B68904003430B606269012101989047D3
:10CC10005D28E8D1B9F1000F09D00020514651F844
:10CC20002020D24341F82020401C0828F7DB02AB2B
:10CC3000224600976FF001000B99AFF300800028A7
:10CC40000CDA401C08D1BBF1000F05D04FF0FF30CB
:10CC50000DB0BDE8F08FFFE74046F9E7E90701D1E5
:10CC600008F1010806444FF0000B79E6CCCCCC0C5F
:10CC70002DE9F05F82460078002715468B460AF1C1
:10CC80000104B946302801D09DB113E014F8010B1E
:10CC90000127782803D0582801D045B10AE00DB10A
:10CCA000102D07D10027102514F8010B02E00825EC
:10CCB00000E00A250026B0460EE005FB080005FB53
:10CCC00006F1012701EB10461FFA80F8B6F5803F08
:10CCD00000D3B94614F8010B2946FFF799FD002847
:10CCE000EBDABBF1000F05D00FB1641E00E0544633
:10CCF000CBF80040B9F1000F06D003F0A9F80221EB
:10CD00000160C81EBDE8F09F48EA0640FAE770B52A
:10CD10008C1810F8015B15F0070301D110F8013BE6
:10CD20002A1106D110F8012B03E010F8016B01F86D
:10CD3000016B5B1EF9D12B0705D40023521E0DD4C5
:10CD400001F8013BFAE710F8013BCB1A921C03E013
:10CD500013F8015B01F8015B521EF9D5A142D8D34B
:10CD6000002070BD094A117811B1012905D00AE0EF
:10CD7000532808D0472806D003E02C2803D00020F1
:10CD8000107000207047012070470000982E00208E
:10CD900070B5164A117804291FD91548134605465F
:10CDA00004781B78472C2B4402D144782C2C04D0D7
:10CDB00013F8012C0A2A0CD00FE013F8010C0A28F2
:10CDC0000BD113F8020C0D2807D152680848904780
:10CDD0000AE013F8022C0D2A01D0002070BD091FB3
:10CDE000C9B2801C00F006F8012070BD982E00200A
:10CDF000BC48002038B50D460021204C8DF80010AD
:10CE0000621C6946E06002F05FFCE06063782A46DD
:10CE10001BA1002006F01CFE6078212821D009DC2F
:10CE2000012816D0022818D0202811D1E06800F07F
:10CE3000F5F908E0222818D030281AD0722807D136
:10CE4000E06800F02BF8002802D0617800F034FA96
:10CE500038BDE06800F0DEF8F5E7E06800F072F851
:10CE6000F1E7E06800F0B0F9EDE7E06800F000FA03
:10CE7000E9E7E06800F03EF8E5E70000982E0020C2
:10CE8000424C455F5061727365436D642025642C8C
:10CE900020636D6449442025640D0A001CB50021FF
:10CEA0008DF8001001AA694602F00EFC08489DF8B2
:10CEB000042008A180F84F20002006F0C9FD0C488E
:10CEC0000078032802D1722002F05CFC00201CBD17
:10CED000A8320020424C455F5061727365436F6E0B
:10CEE0006E6563745374617475732025640D0A0054
:10CEF000502E002010B586B000218DF81010009142
:10CF00000191029103910C236A4604A902F0C6FB29
:10CF10006846FFF771FB0C2810DC094C20220C211D
:10CF2000601CFFF757FB6846FFF766FB0246694641
:10CF3000601CFFF73DFB802006B010BD8120FBE7A1
:10CF4000A8320020F0B587B000278DF81870009740
:10CF5000019702970D236A4606A9039702F09EFBEC
:10CF60006846FFF749FB184C184D04F1080698B1C4
:10CF700069462846FFF754FB69463046FFF750FBE9
:10CF80000120607012A1002006F062FD2A4617A160
:10CF9000002006F05DFD10E00D212846FFF721FB83
:10CFA0000D213046FFF71DFB677009A1002006F038
:10CFB0004FFD13A1002006F04BFD05A1002006F057
:10CFC00047FD07B08020F0BD6C46002026330020CE
:10CFD0002A2A2A2A2A2A2A2A2A2A2A2A2A2A2A2AB1
:10CFE0002A2A2A2A2A2A2A2A2A0D0A005265616434
:10CFF000657220555549442025730D0A0000000034
:10D000005265616465722044697361626C65640D88
:10D010000A00000070B590B0044600208DF81C0096
:10D0200040A106F015FD0D2308AA07A9204602F02D
:10D0300035FB0CAA07A902F047FB0DAA07A902F0CD
:10D0400043FB0EAA07A902F051FB05AA07A902F0AB
:10D050003BFB002401AD05E005EB440207A900F00D
:10D0600019F9641C9DF814108C42F5DB314808A9AD
:10D070000646FFF7D5FA2F4C9DF83000563C84F851
:10D0800063009DF8340084F864000E98A0669DF853
:10D09000141084F86C10002007E000BF35F8102051
:10D0A00004EB4003401CA3F86E208842F6DB22A16B
:10D0B000002006F0CDFC324626A1002006F0C8FC78
:10D0C00094F8632026A1002006F0C2FC94F86420A6
:10D0D00028A1002006F0BCFC2BA10020A26E06F0C7
:10D0E000B7FC94F86C202EA1002006F0B1FC0025BE
:10D0F0000AE000BF04EB45002A46B0F86E302CA1D0
:10D10000002006F0A5FC6D1C94F86C00A842F1DC30
:10D1100009A1002006F09CFC2A490120087010B0EB
:10D12000802070BD424C455F5061727365526F6CD8
:10D13000650D0A00FE3200202A2A2A2A2A2A2A2AD3
:10D140002A2A2A2A2A2A2A2A2A2A2A2A2A2A2A2A3F
:10D150002A0D0A00555549442025730D0A00000088
:10D160007363616E5F706572696F642025640D0A78
:10D17000000000007265706F72745F706572696F95
:10D18000642025640D0A00007363616E6E65725F32
:10D1900064625F6C696D69742025640D0A0000008B
:10D1A00066696C7465725F632025640D0A00000077
:10D1B00066696C7465725B25645D20253034580D9A
:10D1C0000A000000502E002010B58AB0044600204E
:10D1D0008DF8240024216846FFF703FA20236A46CD
:10D1E00009A9204602F05AFA6846FFF705FA2028F6
:10D1F0000FDC094820210446FFF7F3F96846FFF7E2
:10D20000FBF9024669462046FFF7D2F980200AB0B2
:10D2100010BD8120FBE70000D532002010B58AB098
:10D22000044600208DF8240024216846FFF7D9F930
:10D2300020236A4609A9204602F030FA6846FFF723
:10D24000DBF920280FDC094820210446FFF7C9F943
:10D250006846FFF7D1F9024669462046FFF7A8F96C
:10D2600080200AB010BD8120FBE70000B53200200D
:10D270001CB500218DF8001001AA694602F024FABD
:10D2800003499DF8040081F84D0080201CBD00007A
:10D29000A832002070B5054600201080087814469A
:10D2A0000E4618B92846FFF787FA208031462846EF
:10D2B000BDE8704005F0D7B800B5A1B00B460246F6
:10D2C00004A1684602F0B0FD0146684601F0FCFE8C
:10D2D00021B000BD25642C2564000000F8B505468A
:10D2E0000B4800900B4A01210B4803F069FA0B4EE2
:10D2F000002400BF06EB0410694604F0C1F908B130
:10D3000003F092F9641C022CF4DB05484561F8BD7A
:10D3100031150200D5F90100787D02005C4C002037
:10D32000A82E00200548017829B9418880888142CB
:10D3300001D101207047002070470000A82E002076
:10D34000074A064800239188405C491C89B29180B5
:10D35000FF2900D993801370704700005C490020BA
:10D36000A82E0020F0B587B006461422694600F0CA
:10D370006BF804001BD00FA1002006F069FB00250C
:10D380006F4605E07A5D10A1002006F061FB6D1C80
:10D39000A542F7DB0EA1002006F05AFB19482246F1
:10D3A00000EB0610694604F033FA07B0F0BD0E201A
:10D3B000FBE70000424C455F55617274435F536563
:10D3C0006E642E0D0A000000253032582C0000003B
:10D3D0000D0A2D2D2D2D2D2D2D2D2D2D2D2D2D2DC0
:10D3E0002D2D2D2D2D2D2D2D2D2D2D2D2D2D2D2D6D
:10D3F0002D2D2D2D2D2D2D2D2D2D2D2D2D2D2D2D5D
:10D400002D0D0A005C4C0020044A002122F8101067
:10D41000121F22F81010121F11547047B62E002050
:10D420000849095C59B90749064A091D083231F80B
:10D43000101032F81000814201D101207047002005
:10D4400070470000AE2E0020F0B50025194B2C4689
:10D450002F46A3F1080628E016F800C0BCF1000F23
:10D4600009D1DFF850C033F810E0ACF1040C3CF8FF
:10D4700010C0F44518D033F810C0DFF83CE00EEBD4
:10D480004C0C1CF800C001F804C033F810C00CF1BB
:10D49000010C1FFA8CFC23F810C0BCF1FF0F01D95E
:10D4A00023F8107037546D1C641C9442D4DBE8B22E
:10D4B000F0BD0000B62E00205C4A00202DE9F05F90
:10D4C0001B4E8B460024315C79BB0023311D194F64
:10D4D0009A4601F104091CE031F810501BF803C012
:10D4E00007EB45086D1CADB208F800C021F81050DC
:10D4F000FF2D02D9554621F810A01FFA85FC641CA7
:10D5000039F81050A4B2AC4502D10121315402E0E7
:10D510005B1C9342E0DB0848002240F65C71006827
:10D5200003F0C0F908B103F07FF82046BDE8F09F92
:10D53000AE2E00205C4A0020787D020010B5044623
:10D5400006A1002006F084FA60880B4901EB001068
:10D550002146BDE8104004F0EFB80000424C455FA2
:10D5600055617274435F646973635F68616E646C74
:10D5700065722E0D0A0000005C4C00208188034A71
:10D5800002EB01120146104604F0A0B85C4C0020EA
:10D5900010B5044602880BA1002006F059FA114884
:10D5A0000121002241702188018121880E4800EB71
:10D5B000011004F057F8002803D0BDE8104003F034
:10D5C00033B810BD424C455F55617274435F73744C
:10D5D0006172745F646973636F766572792E20255A
:10D5E000640D0A00A82E00205C4C002038B50446CB
:10D5F000044800906946044804F02AF90348C460CE
:10D6000038BD0000A54002005C300020402E002004
:10D610000548017829B941888088814201D10120DB
:10D620007047002070470000402E0020074A06483F
:10D6300000239188405C491C89B29180102900D355
:10D6400093801370704700003C300020402E002073
:10D6500000B585B01421684600F020F802466946FE
:10D66000024804F050F905B000BD00005C30002015
:10D67000024800210181C18041707047402E002086
:10D680000548417829B9C1880089814201D101202A
:10D690007047002070470000402E0020F0B50F4A70
:10D6A00000252B465478D688002914DD14B9178933
:10D6B000BE420DD00A4C1789E45DC4541489641C21
:10D6C000A4B21481102C01D30024148100246D1CF9
:10D6D0005B1C8B42EBDB5470E8B2F0BD402E0020A7
:10D6E0004C300020F0B5114A864600205378002BBC
:10D6F00016D10F4E9C46158914E000BFD4881EF841
:10D7000003703755641CA4B2D480102C01D3A2F846
:10D7100006C0401CD48880B2AC4202D101215170B5
:10D72000F0BD5B1C8B42E9DBF0BD0000402E002009
:10D730004C3000200146014804F0BCB85C300020A9
:10D7400010B522A1002006F083F9244A00212448C4
:10D7500003F036F82248234A0121083803F030F854
:10D760001F48214A0121001F03F02AF808B102F0E6
:10D770005BFF1E4871DF08B102F056FF1B491C48D1
:10D78000143951F8152F02658988A0F85410182112
:10D790001848FEF726FF902001F0F4FF16A10020A4
:10D7A00006F056F91A4803F005FE08B102F03CFFF6
:10D7B0001848FFF793FD4FF0805003694269BDE8B8
:10D7C000104015A1002006F043B9000043656E74B7
:10D7D00072616C5F496E69742E0D0A00BD630200B0
:10D7E000287D0200D1670200BD570200682E00208C
:10D7F000A83200206C46002064625F646973636F26
:10D80000766572795F696E69742E0D0A00000000FA
:10D81000D91C020089E20100466C61736820434F05
:10D82000444553495A452025582C20434F444550E0
:10D8300041474553495A452025580D0A000000002C
:10D8400010B50CA1002006F003F90F4C00224FF494
:10D85000A021206803F026F8002240F6CD41606840
:10D8600003F020F818210948FEF7BBFEBDE8104080
:10D8700008F06ABD43656E7472616C5F53746172C7
:10D88000742E0D0A00000000207D02006C4600206E
:10D8900010B506A1002006F0DBF8084C206803F064
:10D8A00041F86068BDE8104003F03CB843656E7411
:10D8B00072616C5F53746F702E0D0A00207D020040
:10D8C00070B5041D008886B01B2879D026DC4B4D2E
:10D8D0004FF0000610282FD011286FD1208800F0BB
:10D8E0003DFB411C15D000EB800005EBC0004FF65E
:10D8F000FF718181867180F82060817CC47B037C0C
:10D90000427C8DE81E00C37C027D3DA1002006F014
:10D910009FF806B0BDE8704008F016BD1D2850D035
:10D920001F284BD12088211D75DF002846D006B066
:10D93000BDE8704002F078BE207A6379A279E1797F
:10D940008DE80F00637AA27A3AA1002006F080F8F1
:10D95000601D00F0E3FA411C2CD000EB800005EBC9
:10D96000C0052088A8810220A871AE6085F82060DB
:10D97000A87C0DF1040CEB7B2A7C697C8CE80F0001
:10D98000E87C00902B7DAA8933A1002006F060F886
:10D990002046FFF7FDFDA9896B203D4A484302EB75
:10D9A000800003F03BFD08B102F03EFE39A10020EB
:10D9B00006F04EF803F0ECFB0228AAD306B070BDC7
:10D9C0000AE0201D00F05CFE0028F7D106B0201D03
:10D9D000BDE8704000F066BB2079022808D003281B
:10D9E000ECD106B032A1BDE87040002006F030B89E
:10D9F00039A1002006F02CF88BE70000EC3600205F
:10DA0000424C455F4741505F4556545F444953433C
:10DA10004F4E4E4543544544202530325825303230
:10DA2000582530325825303258253032582530327A
:10DA30005800000053656172636820253032582514
:10DA4000303258253032582530325825303258255A
:10DA50003032580D0A000000424C455F4741505F8C
:10DA60004556545F434F4E4E45435445442025642C
:10DA70002C20253032582530325825303258253068
:10DA8000325825303258253032580D0A0000000037
:10DA900094330020626C655F64625F646973636FD6
:10DAA000766572795F73746172742E0D0A000000DE
:10DAB0005B4150504C5D3A20436F6E6E65637469F4
:10DAC0006F6E20526571756573742074696D65643D
:10DAD000206F75742E0D0A005B4150504C5D3A204A
:10DAE0005363616E2074696D6564206F75742E0DCB
:10DAF0000A00000070B5044685880088112802D00D
:10DB00002046FFF7DDFE022D0AD26B20454309486F
:10DB1000214600EB850003F05BFC2046FFF72EFD5D
:10DB20002088112804D12046BDE87040FFF7C8BE08
:10DB300070BD0000943300202DE9FC5F0025DFF864
:10DB40003491A8464FF4807601242F46304606F0E3
:10DB500091FA38B1D9F80403204203D0304606F0D8
:10DB60007FFA2543361D64007F1CB6B2082FEDD323
:10DB70004FF4BE74204606F07DFA38B1204606F018
:10DB80006FFA3D4845F00045D0F800803B4E15F057
:10DB9000FF0F14D0012700242F420CD009EB840181
:10DBA000D1F81005D1F81015C0F3042056F8242040
:10DBB000C1F3014190477F00641C082CECD3002D79
:10DBC00056DA00200190401E4CE0701910F8501FEA
:10DBD00090F9000021F0C004401C38D0012000FA68
:10DBE00004FA1AEA090F32D04FEA911B204603F0DB
:10DBF000EDFE56F82000009010B9BBF1030F26D1BE
:10DC00005146BBF1030F02D1019808430190A000D7
:10DC100000F1A040D0F800071AEA080FC0F3014055
:10DC200002D0022802D012E0032810D1BBF1030F6A
:10DC300007D102281AD00221204606F002FA7F1CE2
:10DC4000FFB2009818B1009A5946204690476D1CC3
:10DC5000042DBAD3002F0BD007480068404507D0E9
:10DC600080460198002781463D46AEE70321E3E761
:10DC7000BDE8FC9F0060004010050050F0540020FB
:10DC800010B58AB00446282207496846FEF790FC82
:10DC9000FEF77CFC0A2190FBF1F201FB12005DF81B
:10DCA00020000AB0204410BD3C7D02002DE9F04167
:10DCB000184E4FF0FF34184F75682246602D1ADB5E
:10DCC00000230BE003EB830107EBC1018E7926B93A
:10DCD0008969914201D21C460A465B1CAB42F1DBCA
:10DCE00004EB840107EBC103BDE8F04101462822A3
:10DCF0001846FEF75DBC05EB850107EBC103014645
:10DD000028221846FEF754FC7068401C7060BDE87D
:10DD1000F0810000542E0020EC3600202DE9F04761
:10DD2000064688B000270F3000F0F8F8DFF82091A1
:10DD30008046B0F1FF3F72D0464908EB880201EB04
:10DD4000C204308894F9025096F9026010B120881C
:10DD500000B901274048DFF804A1007880B394F9A6
:10DD60000300002871D094F822102279CDE9062111
:10DD7000CDE90450A07CE37B227C617C8DE80F0020
:10DD8000E37C227D36A1002005F062FEA169D9F86E
:10DD900008209AF86400511A70B1C0EB0013B1EB7F
:10DDA000430F09DCA0EB0013B1EB430F04DB00EBE6
:10DDB0008000B1EB400F01DBA2612CE05FBB44E0CF
:10DDC000FFE794F82210227994F90330CDE9062177
:10DDD000CDE90453A07CE37B227C617C8DE80F00BD
:10DDE000E37C227D1EA1002005F032FEA069D9F857
:10DDF0000810091A9AF8640048B1C0EB0013B1EB9F
:10DE0000430F04DCA0EB0013B1EB430F08DAA6705C
:10DE1000D9F80800A061404608B0BDE8F0870CE0E2
:10DE200000EB8000B1EB400F05EB060000EBD0707B
:10DE30004FEA6000A070EBDAC0E7D9F80800B061E3
:10DE40000020F0703046FFF731FF4FF0FF30E3E77E
:10DE5000542E0020EC3600206C460020A832002012
:10DE600025303278253032782530327825303278B6
:10DE700025303278253032782C25642C25642C25E9
:10DE8000642C25640D0A00007FB50C4600F10901E1
:10DE90000291017AC908ADF80C10007AC00839D097
:10DEA0006A4602A9FF2002F02FFB78BBBDF80400F0
:10DEB00004282FD3009800780D282BD100984078A3
:10DEC00020BB009814494288002091F86C301FE074
:10DED00001EB4005B5F86E50954218D100980099B5
:10DEE0000079497900EB0120208000988079207129
:10DEF000BDF804000E2806D05FF0010084F8210070
:10DF0000012004B070BD0098C079F7E702E0401C22
:10DF10008342DDDC0020F4E7A83200202DE9F04147
:10DF2000074600240B4E0C4D0BE000BF04EB8400B1
:10DF300006EBC000062239460F30FEF764FB38B10D
:10DF4000641C68688442F1DB4FF0FF30BDE8F0816B
:10DF50002046FBE7EC360020542E00200B4910B57C
:10DF600002460020084B496808E000BF00EB80042F
:10DF700003EBC404A489944204D0401C8842F5DB1E
:10DF80004FF0FF3010BD0000EC360020542E002072
:10DF900030B504460C48A5B00DF1040C10F8503F04
:10DFA0000025817842788CE82E00C17800910379B1
:10DFB000427906A105A801F037FF024605A92046CF
:10DFC00000F014F925B030BDA832002025303258B9
:10DFD00025303258253032582530325825303258C5
:10DFE000253032582C303030303030303030303016
:10DFF000302C25640000000070B504461D4E012041
:10E00000A8B0850235601C4D2870A17084F82220CC
:10E0100020466362FFF782FE411C28D0A96831B315
:10E02000164B00EB800503EBC500217901712288B6
:10E0300023F8352003F578631B7813B190F903308A
:10E0400001E090F90230C47BCDE90521CDE903431D
:10E05000817C037C427C8DE80E00C37C027D08A19C
:10E0600007A801F0E1FE014607A801F02DF828B04D
:10E07000012070BD08050050542E0020EC36002011
:10E080002530325825303258253032582530325814
:10E0900025303258253032582C25642C25642C2507
:10E0A000640000002DE9F0438BB004466946FFF799
:10E0B000EBFE002829D09DF82190601CFFF72EFF71
:10E0C0000346451C94F90710454F4648464A6FF0F1
:10E0D000450816D003EB8303A7F5786404EBC3046B
:10E0E0009DF8043094F82260656A2371BDF8003011
:10E0F0002380B9F1000F36D03B78DBB141451CDA03
:10E1000029E03B7823B1414505DA0BB0BDE8F08347
:10E11000926E8A42F9DC2268CDF80E20A288ADF812
:10E120001220A2798DF814208DF823108368012223
:10E1300068460DE0926E8A420DDC94F923200A4471
:10E1400002EBD272521084F823200122836845E04A
:10E15000FFF752FFD9E714F9230F084400EBD07002
:10E1600040102070D1E7012E10D0002ECDD1914665
:10E1700094F92300926E904201DD884220DA08442F
:10E1800000EBD070401084F823001BE03B7813B103
:10E19000414503DADFE7926E8A42DCDC8068421B8D
:10E1A000B2F5967F01DB0026054694F923002B4645
:10E1B000084400EBD070401084F8230032460DE094
:10E1C000FFF75EFD397811B1404504DA9DE7D9F8D3
:10E1D0006810814299DC2B46324641B22046B7E7AF
:10E1E0006C460020542E0020A8320020F0B50D46C9
:10E1F0000746A1B014461146284603F021FC064606
:10E2000047208DF800002C208DF80100694602207F
:10E2100005E000BF15F8012B0A54401CC0B2641E73
:10E22000F8D22A220A54401CC5B20C46300904F028
:10E23000F1FD60556D1CEDB206F00F0004F0EAFD33
:10E2400060556D1CE8B20D212154401CC0B20A215A
:10E250002154401CC2B20020A05469463846FFF742
:10E260002DF96A4602A1002005F0F2FB21B0F0BDB5
:10E27000476174657761795F53656E64436D6420AF
:10E2800025730D0A00000000F0B5A5B02CA10020F8
:10E2900005F0DEFB304C0026304D4AE0FFF750F829
:10E2A000074602462EA1002005F0D2FBE868802830
:10E2B0003EDA00280AD03CDD275400F10100E86076
:10E2C000042836DD2178472933D102E0472F30D1A9
:10E2D000F2E761782C292CD1211811F8012C0A2A97
:10E2E00027D111F8021C0D2923D126541A4A1DA149
:10E2F000002005F0ADFBE86817492044891C00F8B0
:10E30000056C1F4810F8502F47788378CDE903211A
:10E31000CDE90137C17800910379427919A105A8A7
:10E3200001F082FD014605A8EE6000F039F800E03A
:10E33000EE60FEF7F7FF0028B0D025B0F0BD00007A
:10E34000476174657761795F55617274435F527894
:10E350005F63622E0D0A0000EC450020542E002061
:10E3600025630000476174657761795F5561727458
:10E37000435F52785F63622E2025730D0A00000010
:10E38000A8320020253032582530325825303258F6
:10E390002530325825303258253032582C2573001C
:10E3A000F0B5A1B00F46054603F04AFB06464720EC
:10E3B0008DF800002C208DF801006C46022004E04E
:10E3C00015F8011B2154401CC0B27F1EF8D22A212F
:10E3D0002154401CC5B2300904F01CFD60556D1C71
:10E3E000EDB206F00F0004F015FD60556D1CE8B2AB
:10E3F0000D212154401CC0B20A212154401CC1B23D
:10E4000000206054684601F0D7FA6A4602A1002055
:10E4100005F01EFB21B0F0BD476174657761795F3F
:10E420005561727457726974652025730D0A000076
:10E430002DE9F0418EB0384C002688468DF83060CA
:10E44000054601220CA9206101F028FA102305AA33
:10E450000CA9206101F022F920618DF820601023C1
:10E460006A460CA901F01AF920618DF80C6004AA23
:10E470000CA901F029F920616A4628A1002005F0C5
:10E48000E7FA6F46002409AEC4F10500821927A1FE
:10E490003846FEF7CFF8641CBF1C062CF4DB25A120
:10E4A000002005F0D5FA002429A1325D002005F0F6
:10E4B000CFFA641C062CF7DB27A1002005F0C8FA70
:10E4C00009A8FFF72BFD0446401C1AD022462FA1B5
:10E4D000002005F0BDFA334904EB840001EBC004D1
:10E4E0009DF8100005280FD0A079022809D12A46EE
:10E4F0002DA1002005F0ACFAA08942462946FEF77E
:10E50000DDFF0EB0BDE8F0812DA1002005F0A0FADE
:10E51000012084F82000F4E7542E002062616E642C
:10E520005F757569642025730D0A000025326868DF
:10E5300078000000476174657761795F5561727496
:10E540005F5061727365436D642E0D0A0000000018
:10E55000253032582C0000000D0A2D2D2D2D2D2D8B
:10E560002D2D2D2D2D2D2D2D2D2D2D2D2D2D2D2DDB
:10E570002D2D2D2D2D2D2D2D2D2D2D2D2D2D2D2DCB
:10E580002D2D2D2D2D2D2D2D2D0D0A00476174655E
:10E590007761795F46696E6442616E642025642EFE
:10E5A0000D0A0000EC360020424C455F5561727444
:10E5B000435F57726974652025732E0D0A000000B1
:10E5C0006465766963652D3E616C6C6F77203D20D4
:10E5D000545255450D0A000070B50D46064611A16E
:10E5E000002005F035FA002405E0325D13A100207B
:10E5F00005F02EFA641CAC42F7DB12A1002005F0F6
:10E6000027FA0020705532461BA105F021FA0DA112
:10E61000002005F01DFAE9B23046BDE87040FFF772
:10E6200007BF0000476174657761795F5561727457
:10E630005F52785F63622E0D0A0000002530325869
:10E640002C0000000D0A2D2D2D2D2D2D2D2D2D2DC5
:10E650002D2D2D2D2D2D2D2D2D2D2D2D2D2D2D2DEA
:10E660002D2D2D2D2D2D2D2D2D2D2D2D2D2D2D2DDA
:10E670002D2D2D2D2D0D0A0025730D0A00000000F3
:10E680002DE9F04194B0044600200A900B9004F16B
:10E6900009000890207AC008ADF82400207AC0084C
:10E6A0002DD006AA08A9FF2001F02EFF38BBBDF827
:10E6B0001C00042823D3069800784C281FD1069804
:10E6C0004078E0B906988078022818D10698C0787A
:10E6D000152814D120796378A278E1788DE80F00AD
:10E6E0006379A27929A10CA801F09EFB2E4D6878D0
:10E6F00028B10C222D490CA8FDF785FF18B1002088
:10E7000014B0BDE8F08194F90700687510F1460F68
:10E710003ADBDFF89C8001202870D8F80800686098
:10E72000069C0026241D06220AA92046FDF76BFF41
:10E7300030B32046FFF7F2FB0546401C20D094F989
:10E74000067060792179E27802920597CDE903108D
:10E75000A1786078CDE9000123782A4615A1002030
:10E7600005F076F911487E38806EB84208DC1C4806
:10E7700005EB850100EBC100C770D8F80810C16136
:10E78000E41D761C032ECEDB0120B9E7253032587C
:10E7900025303258253032582530325825303258FD
:10E7A00025303258000000006C460020263300203F
:10E7B000542E00205265616465722025642C20254A
:10E7C00030325825303258253032582530325825CD
:10E7D00030325825303258202D2025640D0A000093
:10E7E000EC36002088B005F009F908B101F01CFFF3
:10E7F0004EA1002005F02CF9544B554A032100206E
:10E8000002F008F808B101F00FFF52480325C0F8E4
:10E81000005751490126B00208601CB14FA10020E9
:10E8200005F016F903F096F8504801F04BF8204631
:10E8300006F086FF464A0A21B03A082001F0AAFFF6
:10E8400008B101F0F1FE9DF8080049A120F00F0089
:10E85000401C20F0F00010308DF808000B2202A8B8
:10E860007CDF08B101F0E0FE002400941320ADF835
:10E87000000050200194ADF80200ADF804404FF4C0
:10E88000C870ADF8060068467ADF08B101F0CCFE2A
:10E890001C216846FDF7A5FE4FF42030CDE900406D
:10E8A0004FF4702002908DF80C504FF6FF70ADF8C9
:10E8B0000E0032488DF81060CDE90540684602F040
:10E8C000BBFB08B101F0B0FEFEF73AFF00F09EF886
:10E8D0002B4C03E001F04EFF07F058FA2078002897
:10E8E000F8D00CE0FEF7ACFF04E000BF01F042FFFF
:10E8F00007F04CFA20780128F8D0FEF7C9FF2078FD
:10E900000128EFD00DE000BF00F0A8F804E000BF40
:10E9100001F030FF07F03AFA20780328F8D000F031
:10E92000BDF820780328D9D1EEE7000050726F4D72
:10E930004F5320424C4520476174657761792046EA
:10E9400069726D776172652E0D0A0000FD07020085
:10E9500070310020280000500C050050426F6E649A
:10E960007320657261736564210D0A00D9E50100A9
:10E9700052656C61794E6F7264696300011C02001C
:10E98000502E002000F01F0201219140400980001C
:10E9900000F1E020C0F88012704700F01F02012152
:10E9A00091404009800000F1E020C0F8001170475C
:10E9B00000F01F02012191404009800000F1E02099
:10E9C000C0F8001270474907090E002806DA00F067
:10E9D0000F0000F1E02080F8141D704700F1E020E6
:10E9E00080F8001470470000BFF34F8F054801689E
:10E9F000054A01F4E06111430160BFF34F8F00BF8E
:10EA0000FDE700000CED00E00400FA0510B50AA1D6
:10EA1000002005F01DF80D4A01210D4801F0D0FE3F
:10EA20000B480C4A0021001D01F0CAFEBDE8104051
:10EA30000948FEF7DBBD00005065726970686572B9
:10EA4000616C5F496E69742E0D0A0000F1FA0100D5
:10EA5000647D0200A91A020061FA010010B509A143
:10EA6000002004F0F5FF00F0EBFB0B4901200871DA
:10EA7000032002F0F1F9002803D0BDE8104001F0B6
:10EA8000D3BD10BD5065726970686572616C5F536B
:10EA9000746172742E0D0A00702E002001A10020F6
:10EAA00004F0D6BF5065726970686572616C5F531F
:10EAB000746F702E0D0A000010B5044605F028FB97
:10EAC000204602F069F9204602F0E2FA2046BDE84D
:10EAD0001040FEF72FBE000007480021C0F840118B
:10EAE000C0F84411C0F84811C0F84C11C0F800112A
:10EAF000C0F8041108F0F4BB001001402DE9F0410A
:10EB00001249134D4868AA68121A0020642A00DBD3
:10EB1000087000240F4F804612E000BF04EB840011
:10EB200007EBC006F07850B1F069A968081A1E28F2
:10EB300005DB09A1002004F08BFF86F80380641C2C
:10EB400068688442EADBBDE8F08100006C46002082
:10EB5000542E0020EC3600207265616465722074CA
:10EB6000696D656F75742E0D0A0000002DE9F04780
:10EB7000114F0446DDF8209038781D461646884629
:10EB800008B900F0D7FF7869A04211D90A4904EB0F
:10EB9000440001EBC00134B1C1F84880C1E91365FC
:10EBA0000020886548650020C1F85C90BDE8F087CA
:10EBB0004FF0FF30FAE70000EC5B00202DE9F04752
:10EBC000114F0446DDF8209038781D4616468846D9
:10EBD00008B900F0AFFF3869A04211D90A4904EB27
:10EBE000440001EBC00134B1C1F81880C1E90765E8
:10EBF0000020886248620020C1F82C90BDE8F087B0
:10EC00004FF0FF30FAE70000EC5B002070B5074BD7
:10EC10000646144618780D4608B900F08BFF2246C8
:10EC200029463046BDE8704000F002B8EC5B002099
:10EC300070B50E46144900EB400001EBC0051446C8
:10EC4000E86A183520B101280FD0022805D113E059
:10EC5000284600F0A3FFA04201D2002411E0224682
:10EC60003146284601F0C0F80BE0284600F096FF38
:10EC7000A042F4D20446F2E73146284601F087F874
:10EC80000446204670BD0000EC5B00202DE9F041F9
:10EC900098B0064607A8029040200025CDE903055C
:10ECA000CDE9055690460C4614F8011B002973D097
:10ECB000252908D002A801F04BF805980028F3DABE
:10ECC00018B0BDE8F08100200122217823291ED050
:10ECD0002B2919D02D2902D0302908D102E040F08B
:10ECE000010001E040F00200641C002AEDD1002286
:10ECF0002178A1F130030A2B0CD202EB820201EB46
:10ED00004202303A641CF3E740F00400ECE740F0C4
:10ED10000800E9E70023CFB22E2F0BD114F8011F12
:10ED2000A1F130070A2F05D203EB830301EB430364
:10ED3000303BF3E76C290DD068290BD0702954D0F3
:10ED40000BDC252916D0582931D063290CD0642931
:10ED500013D114E014F8011BECE7732934D07529A2
:10ED60001BD0782909D122E0D8F80000011DC8F88D
:10ED70000010017802A800F0EBFF641C9DE7D8F8B2
:10ED800000100F1DC8F800700968CDE900200A22A4
:10ED900002A800F00FFFF0E733E0D8F800100F1DD5
:10EDA000C8F800700968CDE900200A2208E0D8F808
:10EDB00000100F1DC8F800700968CDE9002010226E
:10EDC00002A800F05BFFD8E7D8F80000011DC8F8E2
:10EDD0000010076817F8011B0029CED002A800F028
:10EDE000B7FF05980028F5DAC7E7D8F80000011D3D
:10EDF000C8F8001001680820CDE90005034610227C
:10EE0000DEE7059800287FF75BAF049820B1024643
:10EE100007A93046FFF7FAFEDDE904100844059023
:10EE20004EE708F0F9B90000074810B5406830B166
:10EE30008047002807D0BDE8104001F0F5BBBDE8D1
:10EE4000104004F001BA10BD0C30002070B592489B
:10EE50000021031D0278181D0124062A07D11D7800
:10EE60002D0704D10578C5F30315032D02D0062A1A
:10EE700004D00FE08A4E894D75670EE01D782D078E
:10EE800008D10578C5F30315032D06D0042D04D051
:10EE9000052D02D0062A09D010E04FF08055D5F894
:10EEA0004452804EC5F34235356002E01D782D078F
:10EEB00004D10578C5F30315032D02D0062A06D028
:10EEC00011E0794D2E6826F080762E600EE01D78D8
:10EED0002D0708D10578C5F30315032D06D0042DA1
:10EEE00004D0052D02D0062A0AD011E04FF080454B
:10EEF000C5F80C11C5F810116A4D2D1F296002E0EC
:10EF00001D782D0704D10578C5F30315032D02D014
:10EF1000062A05D00CE0634B032264331A600AE032
:10EF20001D782D0704D10578C5F30315032D02D0F4
:10EF3000062A0DD06AE05D4B05221A605B4A7832E2
:10EF400014605A4A083211603F221B1D1A6002E009
:10EF50001A7812075AD10078C0F30310052855D14A
:10EF600053480068534A10605148001D0068121D44
:10EF700010604F4808300068121D10604C480C307B
:10EF80000068121D10604A4810300068121D1060A1
:10EF9000474814300068121D10604548183000685A
:10EFA000444A2032106042481C300068121D106034
:10EFB0003F4820300068121D10603D482430006832
:10EFC000121D10603A4828300068121D1060384841
:10EFD0002C300068121D1060354830300068354A0A
:10EFE00040321060324834300068121D10603048E2
:10EFF00038300068121D10602D483C300068121D2A
:10F0000010602B4840300068121D1060264874388C
:10F01000026842F470020260BFF34F8FBFF36F8F3C
:10F020004FF01023D3F80C02234AC507234811D010
:10F0300014600468002CFCD0D3F80C4224F00104C6
:10F04000C3F80C420368002BFCD011600168002952
:10F05000FCD01AE0D3F80052002D03DBD3F80452A1
:10F06000002D14DA14600468002CFCD01524C3F8B9
:10F0700000420568002DFCD0C3F804420368002B51
:10F08000FCD0116001680029FCD0FFF7ADFC0D49F0
:10F090000B48086070BD0000E00F00F00DF0ADBA45
:10F0A00000C007403C050040FCED00E01056004069
:10F0B0000404001020C5004004E5014000E40140C4
:10F0C0000090D0032030002030B5A1B00D4604469A
:10F0D00002F0B6FC014653208DF800002C206A4651
:10F0E0008DF80100022304E014F8010BD0545B1CDE
:10F0F000DBB26D1EF8D22A20D0545B1CDBB20809AB
:10F1000003F088FED0545B1CDBB201F00F0003F06B
:10F1100081FED0545B1CD8B20D211154401CC0B2EA
:10F120000A211154401CC1B200205054684600F01E
:10F1300043FC21B030BD0000F0B51646A1B00F462B
:10F1400002460CA1684600F06FFE04466D460DEBCA
:10F15000040032463946FDF72BFAA119681810F859
:10F16000010C10B100206854491C6846FFF7ACFF41
:10F1700021B0F0BD25642C0000B5A1B00B460246BD
:10F1800004A1684600F050FE01466846FFF79CFF68
:10F1900021B000BD25642C256400000010B50E4888
:10F1A00086B00DF1040C10F8504FC1784378827886
:10F1B0008CE81E00017900914379902207A10E4846
:10F1C00000F032FE0D49886006B00146BDE81040EF
:10F1D0000948FFF779BF0000A832002025642C25DC
:10F1E00030325825303258253032582530325825A3
:10F1F00030325825303258003C480020982E0020EC
:10F2000010B5A2B053228DF800202C228DF80120D9
:10F210006B46022205E000BF10F8014B9C54521CC3
:10F22000D2B2491EF8D22A209854521CD0B245219D
:10F230001954401CC1B2184600F06EFC22B010BD3B
:10F2400010B586B00323012219A1684600F0ECFD39
:10F2500004461A481AA10A6840F8122F4A68426008
:10F26000896881601548224669461E30FDF7A0F97D
:10F27000124900201231214408739DF8100020F03B
:10F280000F00401C20F0F00010308DF810000B48EB
:10F290001230FDF7B1F9094982B2123104A87CDFBE
:10F2A00008B101F0C1F901F047F906B010BD000046
:10F2B00020562532642E253032640000702E002046
:10F2C000494F542047617465776179200000000040
:10F2D0001CB500218DF8001001AA694600F0F4F970
:10F2E00005489DF8041000F84E1F0121417071205F
:10F2F00000F048FA80201CBDA832002010B5602024
:10F3000000F040FA802010BD38B500213B4C8DF84C
:10F31000001001226946A06000F0C0FA621D694633
:10F32000A06000F0D1F9A060627935A1002004F05E
:10F330008FFB6079412826D00FDC3749232852D033
:10F3400006DC202837D021283ED0222811D146E0E3
:10F3500024284ED040280CD111E0442823D004DCCE
:10F36000422814D0432804D115E0502817D0602833
:10F3700001D081201CE0A068FFF7C0FF16E0A06864
:10F3800000F04CF912E0A06800F01EF90EE0A06851
:10F3900000F070F90AE0A06800F06EF806E0A068DE
:10F3A000FFF796FF02E0A06800F038F8002801D0CF
:10F3B00000F0AEF938BD18480D300446FDF71CF9D1
:10F3C00002462146202007E013482D300446FDF771
:10F3D00013F902462146212000F0AAF938BD91F820
:10F3E0004D10222002E040F20311232000F0B8F972
:10F3F00038BD91F84F102420F8E70000702E00204F
:10F40000546167506C75735F5061727365436D64CE
:10F410002025640D0A000000A832002010B586B037
:10F4200000218DF8101000910191029103910C239D
:10F430006A4604A900F032F96846FDF7DDF80C28A9
:10F4400015DC0C4C20220C21601CFDF7C3F868462B
:10F45000FDF7D2F802466946601CFDF7A9F8302096
:10F4600000F090F9FFF7ECFE802006B010BD81207F
:10F47000FBE70000A8320020F0B599B00546002057
:10F480008DF80000019002900390049080242421C4
:10F4900005A8FDF7A6F824210EA8FDF7A2F80C2375
:10F4A00001AA6946284600F0F9F89DF8001099B9BC
:10F4B000202305AA694600F0F1F89DF8001059B91B
:10F4C00020230EAA694600F0E9F89DF8001019B94A
:10F4D00017AA694600F0F8F801AA2CA1002004F050
:10F4E000B7FA05AA2CA1002004F0B2FA0EAA2DA1A9
:10F4F000002004F0ADFA9DF85C202EA1002004F05D
:10F50000A7FA01A8FDF778F82E4E0C2826DC202259
:10F510000C213546701CFDF75DF801A8FDF76CF86D
:10F52000024601A9681CFDF743F8FFF789FE05A80C
:10F53000FDF762F80546202810DC06F10D002021B9
:10F540000746FDF74EF82A4605A93846FDF730F87C
:10F550000EA8FDF751F80546202801DD81240AE0B8
:10F56000184820212D300746FDF73BF82A460EA902
:10F570003846FDF71DF89DF85C0086F84D00232005
:10F5800000F000F919B02046F0BD00006E616D6515
:10F59000203D2025730D0A0073736964203D2025EA
:10F5A000730D0A0070617373776F7264203D2025BC
:10F5B000730D0A007365637572697479203D2025A7
:10F5C000640D0A00A832002030B58BB0044600203C
:10F5D0008DF8240024216846FDF703F820236A46AD
:10F5E00009A9204600F05AF86846FDF705F80446D8
:10F5F00020280FDC084820210546FCF7F2FF2246B0
:10F6000069462846FCF7D4FF212000F0BBF8802093
:10F610000BB030BD8120FBE7D532002010B58AB099
:10F62000044600208DF8240024216846FCF7D9FF09
:10F6300020236A4609A9204600F030F86846FCF706
:10F64000DBFF202812DC0A4820210446FCF7C9FF12
:10F650006846FCF7D1FF024669462046FCF7A8FF42
:10F66000202000F08FF880200AB010BD8120FBE739
:10F67000B53200201CB500218DF8001001AA6946A2
:10F6800000F022F804499DF8040081F84D00222082
:10F6900000F078F880201CBDA832002030B400258E
:10F6A00015700C7844B10CE02C2C09D02A2C07D012
:10F6B000401C02F8014B5B1E04780CB1002BF3D107
:10F6C000157030BC02F0CFBE70B50546002010703A
:10F6D000087814460E4618B92846FDF76DF82070D4
:10F6E00031462846BDE8704002F0BDBE70B5054603
:10F6F00000201060087814460E4618B92846FDF719
:10F700005BF8206031462846BDE8704002F0ABBE91
:10F7100000B5A1B0024605A1684600F085FB014690
:10F720006846FFF76DFD21B000BD000025640000B4
:10F7300070B51546A0B00E46024608A1684600F016
:10F7400073FB04460DEB04002A463146FCF730FFFC
:10F7500061196846FFF754FD20B070BD25642C0088
:10F7600000B5A1B00B46024604A1684600F05CFB60
:10F7700001466846FFF744FD21B000BD25642C25F5
:10F780006400000070B5044602463AA1002004F06F
:10F790005FF94149602C5ED01DDC084600F12D0563
:10F7A00000F10D06222C29D00ADC202C1FD0212CA0
:10F7B0005ED12846FCF720FF02462946212006E0BC
:10F7C000232C1ED0302C53D10C223020491CBDE8F4
:10F7D0007040FFF7B1BC702C36D0712C37D0722C32
:10F7E0003FD0902C44D1BDE87040FFF7D7BC3046E5
:10F7F000FCF702FF024631462020E8E791F84D1061
:10F8000020E00C460C22491C3020FFF795FC3220EA
:10F8100004F0F2F93046FCF7EFFE024631462020B4
:10F82000FFF78AFC322004F0E7F92846FCF7E4FEF3
:10F83000024629462120FFF77FFC322004F0DCF944
:10F8400094F84D10222008E00121702005E091F885
:10F850004E10712001E001216020BDE87040FFF7EB
:10F860008BBC91F84F10BDE870402420FFF778BFA3
:10F8700070BD0000546167506C75735F536574749C
:10F88000696E675265706F727448616E646C657200
:10F890002025640D0A000000A832002030B514466F
:10F8A0000D4602E0294602F0DEFD641EFAD230BDAC
:10F8B0000348007F08B107F0D3BE07F04DBE00003B
:10F8C0004855002030B5044689B01CA1002004F042
:10F8D000BFF81E4A02AB07CA83E807001C48059020
:10F8E000802006901A480623803007904020089018
:10F8F000184A05A902A801F057F808B100F094FED3
:10F9000000250122192000952B461146019504F08F
:10F9100063FB11494FF00070086000221A20032396
:10F9200000951146019504F057FB0C480CA144606A
:10F93000002004F08DF809B030BD0000554152544C
:10F940005F496E69742E0D0A000000006C7D020094
:10F950007C4700204974020008050050982E0020C2
:10F96000554152545F496E697420446F6E652E0D87
:10F970000A000000F8B50E4C0E4D002611E000BF45
:10F980009DF80000FDF7EEF958B12078802808D2E4
:10F990009DF800102954401C2070FDF7F9F900B1C2
:10F9A0002670684600F0E6FF0028E9D0F8BD0000A8
:10F9B000982E0020BC48002070B50D46044605E096
:10F9C000207801F043F80028FAD1641C6D1EF7D2AC
:10F9D00070BD000070B5002510A1284604F038F86D
:10F9E0000024A0B2FDF7BEFC18B9A0B2FDF718FDC7
:10F9F00018B1A0B2FDF708FD00E00125641C022C3F
:10FA0000EFDB002D09D10C48006800F08BFFBDE84A
:10FA100070400AA1002004F01BB870BD55617274DB
:10FA20004350726F66696C655F54585F50657269C8
:10FA30006F640D0A00000000787D02006170705F45
:10FA400074696D65725F73746F70202D206D5F6EC9
:10FA50006F74695F74696D65725F69642E0D0A0069
:10FA600070B51B4D1B4C05E0FDF7E0FDE1786854D7
:10FA7000491CE170FDF7CCFD10B9E0788028F3D384
:10FA8000E078002812D02918002611F8012C452A08
:10FA900003D111F8021C2A2909D0802806D32E543C
:10FAA0000B4A0DA1002003F0D3FFE67070BD084A99
:10FAB0000DA1002003F0CCFFE1780548FFF724FCFE
:10FAC000E670BDE8704080210148FCF78ABD000067
:10FAD000FC460020702E0020746F6F204C6F6E6704
:10FAE0002025730D0A00000025730D0A0000000098
:10FAF00010B5FDF7ADFD074C18B9FDF7C1FD0028A5
:10FB000006D0FDF7B5FD2068BDE8104000F00ABF43
:10FB100010BD0000647D020010B5FDF7E3FD044850
:10FB2000002240F65C710068BDE8104000F0BABEEB
:10FB3000647D020010B5124C02202061606111A0AA
:10FB4000A061A4F50470E0614FF400702062002011
:10FB5000A06260620BA1A164E062A4F11001E16403
:10FB600010212165A0656065E06509A1E01DFCF735
:10FB700057FD08A12046FCF753FD2020A07110BDC1
:10FB8000EC5B00205465726D696E616C00000000D2
:10FB90005254540053454747455200000269C1681A
:10FBA0008A4203D88068401A104400E0501A401E70
:10FBB000704700002DE9FC5F0E008146DDE90C472F
:10FBC000C6F1000098469346824600D408460125B7
:10FBD00003E000BF90FBFBF06D1C5845FADAA84526
:10FBE00000D9454624B1002E01DB780700D5641EFC
:10FBF000B80702D5B8F1000F0FD0F8070DD164B1E6
:10FC0000A5420AD220214846641E00F0A1F8D9F886
:10FC10000C000028F3DABDE8FC9FD9F80C0000289E
:10FC2000F9DB002E02DA56462D2102E0780707D5CF
:10FC30002B21484600F08CF8D9F80C000028EADBAC
:10FC400007F0030002280FD1B8F1000F0CD15CB10E
:10FC5000A54209D230214846641E00F079F8D9F84F
:10FC60000C000028F3DAD6E7CDE9004743465A46B0
:10FC70003146484600F002F8CDE700002DE9F84F84
:10FC80008246DDE90A4B0126984691460D46084614
:10FC9000374602E0B0FBF9F07F1C4845FAD2B84580
:10FCA00000D947465FEACB7017D1B4B15FEA8B70D9
:10FCB00002D5B8F1000F02D0202000900BE03020D8
:10FCC000FBE75046641E009900F042F8DAF80C0099
:10FCD000002838DB0CB1A742F3D3DAF80C00002877
:10FCE00031DB00BFB8F1010F02D9A8F1010803E030
:10FCF000B5FBF6F0484502D306FB09F6F2E7DFF85C
:10FD00004C8000BFB5FBF6F000FB165518F800104C
:10FD1000504600F01DF8DAF80C00002803DBB6FBB3
:10FD2000F9F6002EEED15FEACB700CD0002C0AD091
:10FD3000A74208D220215046641E00F009F8DAF8E4
:10FD40000C000028F2DABDE8F88F0000707E020097
:10FD500010B50446D4E90130421C934205D3236810
:10FD60001954A260E068401CE060D4E901028242BC
:10FD700009D121682069FEF749FFA168884203D0B4
:10FD80004FF0FF30E06010BD0020A06010BD2DE9F5
:10FD9000F047C4681746894606464FF000083069A8
:10FDA000A04201D9051B02E0B168201A0D1AB06803
:10FDB0006D1E001BA84200D80546BD4200D33D463B
:10FDC00070682A4620444946FCF7F2FBB0687F1B66
:10FDD0002C44A844A944A04200D10024F460002F80
:10FDE000DDD14046BDE8F0872DE9F041C668044604
:10FDF000174688468068851B6068BD4206D9304436
:10FE0000FCF7D6FBF019E060BDE8F0812A463044EB
:10FE1000FCF7CEFB7E1B08EB050132466068FCF761
:10FE2000C7FBE660F0E700000FB4084B10B504A96B
:10FE300002AA039800F020F8044602A9002000F06E
:10FE40004CFA204610BC5DF814FB0000DB020200F7
:10FE5000004870472830002002E008C8121F08C17F
:10FE6000002AFAD170477047002001E001C1121F3B
:10FE7000002AFBD1704700002DE9FF4F8DB00F46DF
:10FE80000546002606E025280BD0DDE90F12904735
:10FE90006D1C761C28780028F5D111B03046BDE8DD
:10FEA000F08F0024A246A1460122EC4900E0044361
:10FEB00015F8013F203B02FA03F00842F7D12878F9
:10FEC0002A2810D06FF02F022878A0F130010929DC
:10FED00014D80AEB8A0102EB410144F0020400EB62
:10FEE000010A6D1CF0E701CF5FEA000A03D544F474
:10FEF0000054CAF1000A44F002046D1C28782E2830
:10FF000017D115F8010F44F004042A280ED06FF021
:10FF10002F022878A0F1300109290AD809EB8901BC
:10FF200002EB410100EB01096D1CF2E757F8049B5D
:10FF30006D1C28786C280FD006DC4C2817D0682858
:10FF40000DD06A2814D104E0742810D07A280FD17B
:10FF50000DE044F400140AE044F4801401E044F499
:10FF600040146978814202D104F580146D1C6D1C27
:10FF70002A786E2A1FD00CDC632A31D004DC002AD8
:10FF80008BD0582A11D1A3E0642A68D0692A0CD1F9
:10FF900065E0732A2ED004DC6F2A73D0702A04D156
:10FFA0009BE0752A6FD0782A6ED01046DDE90F12DB
:10FFB0009047761C50E1C4F30250022806D0032873
:10FFC00009D0042801CF09D0066045E101CFF1171F
:10FFD000C0E9006140E101CF06803DE106703BE1F0
:10FFE00017F8040B8DF8000000208DF80100EB4697
:10FFF000012003E057F804BB4FF0FF3061074FF0DA
:020000040002F8
:10000000000102D40DE008F10101884649450FDAEC
:100010008045F8DB1BF808100029F4D108E008F14E
:10002000010188468142FADB1BF808100029F6D14D
:10003000DDE90F23AAEB08008146214600F036F9DE
:10004000304400EB080604E0DDE90F121BF8010B59
:100050009047B8F10108F7D221464846F7E00A2157
:10006000C4F302534FF0000B0891022B04D001CFD0
:10007000C117032B09D00AE0FF1D27F00707F7E897
:10008000020108E032E01FE020E000B2C117042BBB
:1000900001D140B2C117031E71F1000307DA4FF01E
:1000A000000CD0EB0C006CEB01012D2302E02305CA
:1000B00004D52B238DF82430012303E0E30701D07E
:1000C0002023F7E7984658E00A2110E010210EE0BF
:1000D00010204FF0000B08900CE010214FF0000BA7
:1000E00044F004044FF00809089103E008214FF0A0
:1000F000000B0891C4F30253022B04D001CF00215E
:10010000032B06D006E0FF1D27F00707F7E80201E2
:1001100003E080B2042B00D1C0B24FF000082307E7
:100120002BD5702A07D0DDF820C08CF0100C5CEACB
:100130000B0C05D00EE040238DF82430012308E09D
:1001400050EA010306D030238DF824308DF82520A5
:1001500002239846DDF820C08CF0080C5CEA0B0CFA
:100160000BD150EA010301D1630706D530238DF886
:1001700024304FF00108A9F10109582A04D038A20F
:100180000B9208AA0A920BE03AA2F9E75B46089A9A
:10019000FCF7CAF90B9B9B5C0A9A521E0A921370D9
:1001A00050EA0102F2D10A98ADEB000000F1200BF9
:1001B000600702D524F4803401E04FF00109D945ED
:1001C00002DDA9EB0B0000E0002000EB0B01414435
:1001D0000890AAEB010AE00306D4DDE90F232146CB
:1001E000504600F063F806444FF0000908E009A902
:1001F00011F80900DDE90F12904709F10109761C99
:10020000C145F4DBE0030CD5DDE90F232146504660
:1002100000F04CF8064404E0DDE90F12302090476E
:10022000761C0899481E08900029F5DC08E00A9819
:100230000A990078491C0A91DDE90F129047761C53
:10024000BBF10001ABF1010BF1DC21465046DDE9C9
:100250000F2300F019F806446D1C1BE60928010065
:10026000303132333435363738396162636465662C
:1002700000000000303132333435363738394142EE
:1002800043444546000000002DE9F04104460025A6
:100290001E461746880404D405E039462020B0479E
:1002A0006D1C641EF9D52846BDE8F0812DE9F041AA
:1002B000044600251E469046C80301D5302700E0BD
:1002C0002027880404D505E041463846B0476D1C18
:1002D000641EF9D52846BDE8F0810A68531C0B60FE
:1002E0001070704710B550B149B102780B789A423E
:1002F00005D10622401C491CFCF785F908B10020F5
:1003000010BD012010BD2DE9FC5F002516880746B1
:100310001580406B14468946A8464FF00C0A1123FD
:100320004FF0020B98B101784846032E48D380F86D
:1003300000B02288521C92B2228083542288521C20
:1003400092B2228009F802102088401C20803A6B6B
:10035000DAB12088494600F11205B54230D80B5475
:1003600020881023401C80B220800B542088401C21
:1003700020800F202388155C401ECD54238840B276
:100380005B1C23800028F5DA454697F82E0030B133
:1003900033462246494603F030F8050011D197F85C
:1003A0002D0030B132462146484601F06BF8050079
:1003B00007D1B87820B32088C846001DB04202D9C2
:1003C0005046BDE8FC9F684679DF0028F9D12188B6
:1003D000032008F8010020881921401C80B22080E9
:1003E00008F800102088401C80B2208000EB080133
:1003F000BDF8000007F0A0F90146208808442080DD
:10040000F878B8B1228897F90310D31C4846B34254
:10041000D6D800F802B022880123521C92B2228062
:1004200083542288521C92B2228009F8021020883C
:10043000401C20807868B8B1218890F90020CB1C3E
:100440004846B342BCD800F801B021880A23491CB1
:1004500089B2218043542188491C89B2218009F83E
:1004600001202088401C2080388950B1CDE9004609
:100470004B460622022107F1080007F01EFA05008C
:100480009FD1388A50B1CDE900464B46072203215F
:1004900007F1100007F011FA050092D1388B50B126
:1004A000CDE900464B461522142107F1180007F04C
:1004B00004FA050085D1386A30B1334622464946F0
:1004C00001F05AFB0500DBD1786A30B13346224691
:1004D000494603F0CDFA0500D2D197F82C0038B187
:1004E000334622464946384606F060FA0500C7D131
:1004F000387838B1334622464946384603F0EAFA9E
:100500000500BDD128465CE770B500238D880C68D6
:100510000DE0E618E15C7678864206D1E018801C92
:10052000491E10609180002070BD0B445B1C9D42F1
:10053000EFD8052070BD000030B59BB0382101A870
:10054000FCF74FF800248DF80440012506208DF8B3
:1005500006508DF807000D21ADF86010ADF864006D
:10056000104918A81A910A9038210F48FCF739F859
:100570000D490220087024210FA8FCF732F88DF8ED
:1005800048504FF4F070CDE91304084B0FAA064908
:1005900001A8009400F072FB002801D000F044F89C
:1005A0001BB030BD7C2E0020C4460020F540020068
:1005B00070B58CB015460E4600236C46C3F10F0192
:1005C000415CE1545B1C102BF8D30D2104F11000A9
:1005D000FCF707F80020C0F10F02315C2244401CF8
:1005E00011740328F7D368464DDF0020C0F10F01D6
:1005F000214491F820102954401C0328F6D30CB054
:1006000070BD0000BFF34F8F05480168054A01F433
:10061000E06111430160BFF34F8F00BFFDE70000B1
:100620000CED00E00400FA050EB500210091CDE9C3
:1006300001106A4644F20100FFF7E4FF0EBD10B559
:100640008268C368934203D001F0FAFE002010BD17
:10065000052010BD29B112B1531E134203D0092049
:1006600070470E2070470160838000218160C16067
:100670000846704710B58268C3689A1A83889A4200
:1006800003D801F0E7FE002010BD042010BD0000DB
:1006900070B50F4B054605201C785E78A64216D033
:1006A0001C7818789E88B04201DA401C00E00020D7
:1006B00018705E88D86804FB06002860986800EB14
:1006C000C4039B880B8050F834001060002070BD7C
:1006D000B42F00202DE9F84F254C814692466088C2
:1006E0000E46814241D800274FF6FF788DF8007002
:1006F000684600F0C5F922786078A188884201DA5E
:10070000401C00E00020C0B2904204D19DF80000DF
:1007100000F0DAF927E065786078884201DA401C59
:1007200000E0002060709DF8000000F0CDF9454524
:1007300019D0A068B9F1000F40F835A00DD066B10E
:100740006188E068324605FB01004946FBF730FF4F
:10075000A06800EBC500868002E000EBC500878042
:100760000020BDE8F88F0420FBE70920F9E700002E
:10077000B42F00200EB504E0029ABDF804100098D2
:10078000904702AA01A96846FFF782FF0028F3D02C
:100790000EBD000030B5CB0008339DB293074FF07B
:1007A000000401D0072030BD044B9A602A44DA606F
:1007B0005C701C7058809980002030BDB42F0020E0
:1007C000074B9B6823B12AB120B10068037C1BB1A1
:1007D000082070470720704741744261002070472D
:1007E000C42F002010B50446082902D00020FFF7CE
:1007F0001BFFD4E90010BDE8104008471CB5044AAF
:10080000CDE9000108216846FFF764FF1CBD000028
:10081000E50702002DE9F0478046994614460F4649
:1008200090074FF0000634D11C4D8CB305F0CCFC82
:100830000320C5F81490287004F11800002107EB7C
:100840004703AC6004EBC102491C167056709770E8
:10085000506000EBC3000329F4DBEE606E70AE70F5
:100860001420FEF78FF806211420FEF7ACF81420B0
:10087000FEF793F80A49C1F8008006211120FEF71F
:10088000A2F80748001F006828610020BDE8F08733
:1008900001E00720FAE7AE60FBE70000C42F00206C
:1008A000081501402DE9F843DFF870900D46174612
:1008B000D9F80810044651B34CB3052D02D20720D5
:1008C000BDE8F883606910B3607C012821D0002660
:1008D00006F0C0FFD9F80810804601EBC800694651
:1008E00006F0D7FFB8B1012100F8041B0C4910C075
:1008F000096880E8E200D9F8081001EBC8009DF80B
:10090000001041701420FEF753F80020D8E70820AB
:10091000D6E72E46DCE70420D2E70000C42F0020F3
:1009200004150140F8B5124E0446B168E1B1DCB1DE
:100930006069C8B10027277406F08CFF0546B068CF
:10094000694600EBC50006F0A4FF78B102210170F2
:100950004460B0689DF8001000EBC50041701420A1
:10096000FEF726F83846F8BD0820F8BD0420F8BD8B
:10097000C42F002010B5044609488168C2688088E9
:10098000511A814206D10121064803F0A9F908B1A4
:10099000052010BD2146BDE810400148FFF74FBEBD
:1009A000BC5900200530002070B50446234888B0AB
:1009B0001E460D00426035D0A888296882B22048C2
:1009C000FFF748FE00282ED1A889A96882B21C48EA
:1009D0001030FFF73FFE002825D120221949684634
:1009E000FBF7E6FDA0680690207900B101208DF8A4
:1009F00014008DF81C60607900B10E208DF8150090
:100A0000E0780290A07803902078019060780090C0
:100A10000D49684603F01AF9002804D19DF81D001D
:100A200018B104E0072008B070BD03F09FF9034837
:100A30000121401C03F054F9F5E7000004300020C8
:100A4000BC590020507E0200A574020010B501467A
:100A50000948FFF70FFE04000CD103F0B5FA48B9BE
:100A600006490548FFF7EBFD20B90121034803F0D3
:100A700023FA0446204610BDCC5900200430002043
:100A800030B5EFF3108172B60D4A9468012324B19A
:100A90000370002900D162B630BD93604FF0E023AF
:100AA000D3F88051074C25401560C3F88041D3F836
:100AB000844154605A17C3F8842100220270E8E789
:100AC000645C0020FC06FFBC0B498A68002A11D038
:100AD00000280FD1EFF3108072B60B684FF0E022C0
:100AE000C2F800314B68C2F8043100228A60002845
:100AF00000D162B670470000645C00202DE9F0412F
:100B000004460078184F012606FA00F03860206885
:100B100003F08DFA0021606803F080FA1348144D49
:100B2000007FA069C5F82405607D217D0843C5F8D4
:100B30006C05D4E90001C5F80C05C5F81415207D35
:100B400001280FD10021A06803F068FA207B8640BD
:100B50003E60E06803F06BFAD4E90201C5F80815BD
:100B6000C5F81005BDE8F081080500504855002083
:100B7000002000402DE9F043044687B0008800F0D3
:100B800095FB8146208802F08DFA214F8046667AD7
:100B9000797B20880022A56800F0D6FBB9F1000F10
:100BA00033D06079400711D50721404604F040F961
:100BB000A0B108218DF80C1021880590ADF80E1019
:100BC000ADF8108003A801F059FA07E0F97B2088FE
:100BD00000F0A6FB10B1404602F048FA03208DF861
:100BE00000002088ADF802006079C0F380008DF825
:100BF0000400A079C0F380008DF805008DF8065040
:100C00008DF80760684601F039FA07B0BDE8F08357
:100C1000202F0020F0B50C4693B01F210726ADF819
:100C20000010ADF80410002750B1C17849070DD568
:100C30006A4602A9FFF767FB002808D102AD02E06F
:100C40000025ADF800706CB1E07810B1304613B0FB
:100C5000F0BD01AA0AA92046FFF755FB0028F6D1EE
:100C60000AAA02E00022ADF80470BDF80400C3B285
:100C7000BDF80000C1B2284672DFE8E770B50D4646
:100C800004991646040040D0F6B341480022427150
:100C9000C0E90331242231463E48FBF789FC00F0CD
:100CA000D3F83C493431A1F110000160203181605A
:100CB00038215C38FBF795FC3648217838380170CC
:100CC000A1788170E178C17061784170D4E9041233
:100CD000C0E90412D4E90212C0E90212D4E90612F2
:100CE000C0E90612616AD1B100F1AC0100F1B802AD
:100CF00041628A60636A1B880B80616A436A8988E3
:100D000099800021436A07E0FFE70E2070BD666A04
:100D1000B668765C5654491C9E888E42F7D8A16A04
:100D2000D9B11C4AAC32A2F10C018A608162A36A7B
:100D30009B888B80A16A836A098819800021836A55
:100D400004E0A66AB668765C5654491C9E888E42BA
:100D5000F7D894F82C1080F82C10216A49B10C496E
:100D600014310162226A52884A80216A026A098823
:100D70001180616821B10649891D41606168416047
:100D80002946BDE8704003483838FFF743BF0000EC
:100D9000C02E0020B44C002010B502881C4C102A34
:100DA00018D00021112A1BD01B2A18D1007A002844
:100DB00015D16079012820D0022816D0032822D02E
:100DC00004280CD12171E2680846002A07D0BDE84A
:100DD00010401047817D012901D18088208110BDFC
:100DE0006170808821898842F9D1032006E0216959
:100DF0000029F4D0BDE810400847022000F02CF88C
:100E00000028F4D110BD032020710420F6E7000073
:100E1000C02E002010B5022801D0032810D1094CA3
:100E2000207800280CD000202070607900F014F8A1
:100E3000002805D02169002902D0BDE810400847EC
:100E400010BD0000C02E0020024800218161818376
:100E500081777047C02E00202DE9F04F744C87B089
:100E60000026607106A8069604F096FF0127082860
:100E700001D030B903E006A801F0E0FB18B90698EC
:100E800008B12770C0E0FFF7DFFF6A4DDFF8A081EF
:100E90004FF0020A687808F118084FF0030B10B100
:100EA0006079012806D0A87858B16079012801D06E
:100EB00002281FD1E16819B1E7700820884700E0D7
:100EC000E6706079012806D1687840B108F1010028
:100ED00004F02EFB18B16079022802D00AE084F8F1
:100EE00005A0A87820B108F1010004F021FB08B9A1
:100EF00084F805B0287B4FF0040920B960790328F5
:100F000001D184F80590287E20B96079042801D1A8
:100F100066712671E16841B16079032801D0042827
:100F200003D1287808B16078C0B1A670182168464E
:100F3000FBF757FB8DF8006001968DF8086003966B
:100F4000607901280ED0022816D03A4E2436A6F138
:100F50005C0703281DD004284CD13AE0A770072075
:100F60008847E3E7ADF81260CDF804808DF8007093
:100F7000ADF8106027713FE0CDF804808DF8007067
:100F80002889ADF81200A888ADF8100084F804A0F4
:100F900032E0A88AADF81200288AADF81000254882
:100FA000243006F0F1FC18B1287808B1607810B14F
:100FB00084F804B01EE01F488DF808A0039687F857
:100FC000039000213838FFF725FE00281DD10520A9
:100FD0002BE0A88BADF81000288CADF81200154856
:100FE000243006F0D1FC18B1287808B1607878B1C7
:100FF00084F80490607918B1684673DF002804D142
:10100000E16809B120798847002007B0BDE8F08F7A
:1010100008488DF808A0039687F803900021383817
:10102000FFF7F8FD0028F0D106202071E2E700006C
:10103000C02E0020B44C002070B5054601461C228D
:101040000F48FBF7B5FA0F4C00262670286830B120
:10105000016861604068A060201D7ADF02E00948F5
:10106000001D7BDF00280AD14FF6FF70608066709C
:10107000BDE87040044A00210448FFF7A1BB70BDE1
:10108000A04D0020E02E0020457702007C7D02006C
:101090001CB50388102B18D01F49204A204C112B57
:1010A00017D0122B26D0502B35D130F8061FE389EC
:1010B000994230D1418902292DD1007B10F0010FD6
:1010C0000CD0BDE81C4000F09DBDBDE81C4003F005
:1010D0000BB94FF6FF704880002048701068FFF78A
:1010E00021FC002817D0A169002914D002B0BDE866
:1010F000104008478268CA60C068086106480C3022
:10110000C2888188CDE900124388028805A10020A9
:1011100002F09EFCD5E71CBDE02E00207C7D020085
:10112000A04D00206F6E5F636F6E6E5F70617261C5
:101130006D735F757064617465206D5F6375727245
:10114000656E745F636F6E6E5F706172616D732048
:1011500025642C25642C25642C25640D0A000000D0
:1011600002490A7D091D05F029BA0000BC4D002086
:1011700002460248C17D001D05F00DBABC4D00209D
:1011800002460248017E001D05F005BABC4D002054
:101190000249887D497D084005F035BABC4D0020E4
:1011A0002DE9F047044603883F4801228CB000F146
:1011B000150A102B09D0112B55D01A2B71D1217A79
:1011C000B2EB111F54D2012353E0027D417D05464D
:1011D0008A43011D06A805F0F1F9142206A901A809
:1011E000FBF7E6F9DFF8C0900026374609F114094D
:1011F0000DF104080AE000BF08EB46001D228388B9
:101200004946281D009705F08BF9761C0198B042DD
:10121000F2D8287DA688C043C0B205F0A3F9A0F596
:101220007F41FF3917D005EB40000123868032460D
:101230005146281D05F0F6F9012332464946281D7E
:1012400005F0F0F9A07D02280BD000231649A288F2
:101250001631281D20E00CB00420BDE8F047FFF750
:10126000E3B90123F2E70023A2885146001D13E0F1
:1012700000230D490546A2881731001D05F0D2F95B
:10128000207A0221B1EB101F01D2012300E00023DC
:101290000549A2881831281D0CB0BDE8F04705F0BB
:1012A000C1B90CB0BDE8F087BC4D002070B50A4E46
:1012B00005460024317D2A46301D05F06CF940B109
:1012C000B17D2A46301D05F066F908B1022400E020
:1012D0000124204670BD0000BC4D002010B5002444
:1012E000204606F0ABFA28B1641CE4B2182CF7D300
:1012F000182010BD03480122A2400168114301607B
:10130000204610BDBC4D002010B5044606F096FAEC
:10131000002802D001482044407E10BDBC4D002072
:1013200070B505460C46084606F088FA002808D035
:1013300004482A460119001D497EBDE8704005F0A9
:101340002AB970BDBC4D002070B5064615460C4646
:10135000084606F073FA002809D005482B46011903
:101360003246BDE87040001D193105F05BB970BD13
:10137000BC4D002070B540B10C4D297839B1044600
:1013800004F0FEFE28B1002070BD0E2070BD0820C4
:1013900070BDE868062807D20549226801EB800184
:1013A000401C0A60E860EEE7042070BDF42E0020C7
:1013B000F04D002040B1054900220123CA600B70A6
:1013C000C1E90102104670470E207047F42E00203C
:1013D00000281FD000291DD00F4A1278002A19D0EA
:1013E0000A88112A0ED0302A06D0322A07D0332A92
:1013F00010D1091D02F0D0BF091D03F063B8091D0B
:1014000002F0E4BE8988B0F8AA21914202D10021FD
:1014100080F8A71170470000F42E002070B50D462B
:10142000040009D01449087840B1C86830B194F874
:10143000A70128B1112070BD0E2070BD082070BD1D
:10144000A4F8AA510020886084F8A80184F8A601B5
:101450000A482B460A49006820602288002002F0D2
:10146000F7FA22460121284690DF0028E7D1012023
:1014700084F8A701002070BDF42E0020F04D00205C
:10148000647F02007CB5054608880C46093090420E
:1014900001D90C207CBD684671DF0028FAD1218873
:1014A0000820685420881B21401C80B220802954C9
:1014B0002088401C80B220802844DDF801100160A3
:1014C000BDF8051081802088801D80B220809DF8A5
:1014D000001001B1012129542088401C20800020E7
:1014E0007CBD000010B50446FFF75AFE204604F00C
:1014F0002BFBA088FFF7DAFE0C4901280CD002284C
:1015000002D020881D280FD1087801280CD1204650
:10151000BDE81040FCF7EEBA0878032804D1204655
:10152000BDE81040FDF7C8BA10BD0000502E0020E5
:101530002DE9F0418046087800262B4D0C464FF6E9
:10154000FF77012811D0022828D003282BD00428A7
:1015500009D163882A8925A1002002F079FA6088E0
:101560002989884217D0BDE8F081618804F10A0218
:10157000404600F077F808B1FFF756F8404600F013
:1015800023F908B1FFF750F821A1002002F060FA1A
:101590006088FCF7FDFC2F816E70E4E727A1002036
:1015A00002F056FAF7E700202978AB882C4F11E0BB
:1015B000626812F800C06A8807F802C0521C92B232
:1015C0006A80FF2A00D96E806A889A4201D101217F
:1015D00003E0401C227A8242EADC29706869002814
:1015E000C1D0BDE8F0410047A82E0020424C455F25
:1015F0004E55535F435F4556545F444953434F4EE6
:101600004E45435445442E2025642C25640D0A0084
:101610005468652064657669636520686173207429
:101620006865204E6F72646963205541525420539F
:101630006572766963650D0A00000000424C455FE3
:101640004E55535F435F4556545F444953434F568D
:101650004552595F4552524F522E0D0A000000006C
:101660005C49002048B141802AB15188C18011886D
:10167000818091880181002070470E207047000012
:1016800030B5114B0D4604000FCB85B08DE80F002F
:1016900018D0BDB12146684663DF002810D12078FC
:1016A0008DF812000120ADF810004FF6FF70608039
:1016B0002868E0600020A080208104A8FFF75AFE7F
:1016C00005B030BD0E20FBE7F47D02001FB50028F9
:1016D00031D000292FD042884FF6FF739A4202D0B2
:1016E0008C88A24227D10C88112C14D0392C22D1FD
:1016F0008288002A1FD08B8993421CD1C268002A9D
:1017000019D003228DF8002001F112020192097C08
:101710008DF808100CE08C8894420CD1C268002A25
:1017200009D004228DF800208988ADF8021043808A
:10173000C268694690471FBD7FB5002200920192A2
:10174000029203920B7801F10E028BB1012B01D0B2
:10175000022B0CD1C268002A09D04988ADF80210CA
:101760005FF002018DF80010C268694690477FBDA6
:101770008B88012BFBD18B790478A342F7D100230E
:1017800017E000BF03EB430432F82450022D07D0CA
:10179000032D0DD102EB84042489ADF80E4007E03F
:1017A00002EB84042589ADF80A506489ADF80C4039
:1017B0005B1C0C7A9C42E5D8C268002AD7D04988C5
:1017C000ADF802100121CDE71FB5010019D04888FE
:1017D000A0F57F42FF3A16D0C988A1B101228DF849
:1017E0000C200A4B00228DF80D20D3E90423CDE90B
:1017F0000023ADF8021003A90291694698DF04B0F6
:1018000010BD0E20FBE70820F9E70000F47D020080
:101810003EB518B1142A03D907203EBD0E203EBDA7
:101820004388A3F57F44FF3C0DD0084D38CD8DE8AB
:10183000380003890291ADF80230ADF806204088E7
:10184000694698DF3EBD08203EBD0000107E0200C4
:1018500030B5174B0D4604000FCB85B08DE80F0057
:1018600023D015B34FF6FF70A0822868A061002036
:10187000A0752146684663DF002814D120788DF8D2
:1018800012000120ADF81000A21C04A9A0DF00285E
:1018900009D12946204604F0CDFC002803D1294671
:1018A000204605F06FFD05B030BD0E20FBE70000BF
:1018B000E47D020000281ED000291CD00A88102ACE
:1018C00014D0112A14D0502A15D131F8062F038ACA
:1018D0009A4202D14B89022B0ED083889A420AD1B8
:1018E0008369002B07D04A890C311847898801E0A9
:1018F0004FF6FF7181827047097B11F0010100D022
:1019000001218175704707B584B068B1828AA2F55C
:101910007F43FF3B0AD0827D42B1BDF81820142AD4
:1019200006D9072007B000BD0E20FBE70820F9E725
:10193000002200920192029203928289039106A9E9
:101940000291ADF8002001218DF80210808A6946CD
:10195000A6DFE7E700B5184887B0002300680590C8
:101960004822164905A805F01DFC08B1FEF75CFEEB
:101970006A460121022005F0FFFB08B1FEF754FE84
:101980000F4804F043FD08B1FEF74EFE684605F02F
:1019900075FB08B1FEF748FE0A4805F065FB08B183
:1019A000FEF742FE084805F023FC002801D0FEF7B0
:1019B0003BFE07B000BD00001C7D02007830002017
:1019C00040280020E5140200057202000249084484
:1019D00090F9300070470000F054002008B502462E
:1019E00090F8A6010B46C0EBC00000EB800002EBB4
:1019F000400092F8A52142B1521ED2B202EB420140
:101A000000EB8102518A491C00E0C188ADF800104A
:101A10000089ADF802006946184692DF08BD000053
:101A200038B10549814204D80449814201D90120D5
:101A300070470020704700002C3000203C30002010
:101A4000034610B50020024602E09C5C6040521C38
:101A50008A42FADB10BD0000044A0168914201D0BD
:101A6000083101E00149383901607047085700200A
:101A700070B504464FF6FF750A462846AC4208D1B9
:101A80004FF480742146104604F01AF8A04209D0A1
:101A900070BDFF2CFCD82146104604F004F808B1B4
:101AA000204670BD284670BD064810B50021017063
:101AB00041708170FBF7DCFD03480068BDE8104011
:101AC000FEF730BF702E0020647D02002DE9F05F2C
:101AD0002648C168F1B3DFF898B00E688146DBF89C
:101AE00000400769C078E11B21F07F45ED1CB0B9CB
:101AF000DFF880804FF48030C8F84403C8F804034E
:101B00001120FCF73FFF1120FCF747FF4FF0010ABF
:101B1000C8F800A02F20FAF7B9FC89F803A0B54255
:101B200000D23546124BE8193C3320F07F40186054
:101B3000DBF800105A46091B21F07F41001B20F002
:101B40007F40C91C81420FD9106818602F20FAF716
:101B50009DFC00E004E0BDE8F05F1120FCF728BF29
:101B6000BDE8F05F04F030BBBDE8F09FC42F00205B
:101B700004150140001001402DE9F0411788064688
:101B8000B81D14460D46984202D90C20BDE8F081DC
:101B90003188072206290AD34FF4486C4FF6FF73A9
:101BA000614501D9994202D17088062801D21046B8
:101BB000ECE7604501D99842F9D1994203D09842A7
:101BC00001D08142F3D80520E85520881221401C1D
:101BD00080B2208029542088401C80B22080411986
:101BE000308805F0A9FD2188084480B22080411981
:101BF000708805F0A1FD2188084420800020C5E7F9
:101C0000FEF712BDF8B519A1002001F021FF1E4812
:101C100001F052FB1C4D00261C4C0C3D50B11CA188
:101C2000002001F015FF6169E1B101208DF800008D
:101C3000684616E02A7825A1002001F009FF2878DF
:101C400020B1616971B18DF80060F1E7687858B131
:101C5000A168204800220068FEF724FE10B1A169A7
:101C600001B188472E70F8BD6168F2E7636F6E6E50
:101C70005F706172616D735F6E65676F74696174C7
:101C8000696F6E0D0A000000EC2E0020A04D0020B0
:101C90004E6F7469667920746865206170706C6934
:101CA000636174696F6E2074686174207468652064
:101CB00070726F63656475726520686173207375F7
:101CC0006363656465640D0A0000000025640D0A05
:101CD000000000007C7D020010B5044604A1002035
:101CE00001F0B6FE2046BDE81040FBF727BC00001F
:101CF00064625F646973635F68616E646C65722EB1
:101D00000D0A00002DE9FF410C4618B1012004B076
:101D1000BDE8F08120790027DFF87C80012638B10A
:101D200041F61D5501281ED0022829D00F20EEE7CC
:101D300002970397E0680190694601A804F070F9E2
:101D400068B102988188E18000882081029804F0BF
:101D5000DBF9BDF8002008EB02118E7300E00A20C9
:101D600002212171D3E70D4B6A460021A01D04F02A
:101D700013F938B1094908398F60CF600A28C6D1F4
:101D80002846C4E7019804F0BFF904498A8808EBA3
:101D900002118E73F2E7000018570020EC2F00208C
:101DA0002DE9F843054690F8A60195F8A541C0EB4A
